{
  "_format": "hh-sol-artifact-1",
  "contractName": "Bottleflip",
  "sourceName": "contracts/Bottleflip.sol",
  "abi": [
    {
      "inputs": [],
      "stateMutability": "nonpayable",
      "type": "constructor"
    },
    {
      "anonymous": false,
      "inputs": [
        {
          "indexed": true,
          "internalType": "address",
          "name": "from",
          "type": "address"
        },
        {
          "indexed": false,
          "internalType": "uint256",
          "name": "amount",
          "type": "uint256"
        }
      ],
      "name": "Funded",
      "type": "event"
    },
    {
      "anonymous": false,
      "inputs": [
        {
          "indexed": true,
          "internalType": "address",
          "name": "player",
          "type": "address"
        },
        {
          "indexed": false,
          "internalType": "uint256",
          "name": "wager",
          "type": "uint256"
        },
        {
          "indexed": false,
          "internalType": "bool",
          "name": "playerChoice",
          "type": "bool"
        },
        {
          "indexed": false,
          "internalType": "bool",
          "name": "result",
          "type": "bool"
        },
        {
          "indexed": false,
          "internalType": "bool",
          "name": "won",
          "type": "bool"
        },
        {
          "indexed": false,
          "internalType": "uint256",
          "name": "payout",
          "type": "uint256"
        },
        {
          "indexed": false,
          "internalType": "uint256",
          "name": "gameId",
          "type": "uint256"
        }
      ],
      "name": "GamePlayed",
      "type": "event"
    },
    {
      "anonymous": false,
      "inputs": [
        {
          "indexed": false,
          "internalType": "uint256",
          "name": "newHouseEdgeBps",
          "type": "uint256"
        }
      ],
      "name": "HouseEdgeUpdated",
      "type": "event"
    },
    {
      "anonymous": false,
      "inputs": [
        {
          "indexed": true,
          "internalType": "address",
          "name": "previousOwner",
          "type": "address"
        },
        {
          "indexed": true,
          "internalType": "address",
          "name": "newOwner",
          "type": "address"
        }
      ],
      "name": "OwnershipTransferred",
      "type": "event"
    },
    {
      "anonymous": false,
      "inputs": [
        {
          "indexed": false,
          "internalType": "uint256",
          "name": "newMinWager",
          "type": "uint256"
        },
        {
          "indexed": false,
          "internalType": "uint256",
          "name": "newMaxWager",
          "type": "uint256"
        }
      ],
      "name": "WagerLimitsUpdated",
      "type": "event"
    },
    {
      "anonymous": false,
      "inputs": [
        {
          "indexed": true,
          "internalType": "address",
          "name": "to",
          "type": "address"
        },
        {
          "indexed": false,
          "internalType": "uint256",
          "name": "amount",
          "type": "uint256"
        }
      ],
      "name": "Withdraw",
      "type": "event"
    },
    {
      "inputs": [],
      "name": "fund",
      "outputs": [],
      "stateMutability": "payable",
      "type": "function"
    },
    {
      "inputs": [],
      "name": "getHouseStats",
      "outputs": [
        {
          "internalType": "uint256",
          "name": "balance",
          "type": "uint256"
        },
        {
          "internalType": "uint256",
          "name": "games",
          "type": "uint256"
        },
        {
          "internalType": "uint256",
          "name": "wagered",
          "type": "uint256"
        },
        {
          "internalType": "uint256",
          "name": "paidOut",
          "type": "uint256"
        },
        {
          "internalType": "uint256",
          "name": "houseProfit",
          "type": "uint256"
        }
      ],
      "stateMutability": "view",
      "type": "function"
    },
    {
      "inputs": [],
      "name": "houseEdgeBps",
      "outputs": [
        {
          "internalType": "uint256",
          "name": "",
          "type": "uint256"
        }
      ],
      "stateMutability": "view",
      "type": "function"
    },
    {
      "inputs": [],
      "name": "maxWager",
      "outputs": [
        {
          "internalType": "uint256",
          "name": "",
          "type": "uint256"
        }
      ],
      "stateMutability": "view",
      "type": "function"
    },
    {
      "inputs": [],
      "name": "minWager",
      "outputs": [
        {
          "internalType": "uint256",
          "name": "",
          "type": "uint256"
        }
      ],
      "stateMutability": "view",
      "type": "function"
    },
    {
      "inputs": [],
      "name": "owner",
      "outputs": [
        {
          "internalType": "address",
          "name": "",
          "type": "address"
        }
      ],
      "stateMutability": "view",
      "type": "function"
    },
    {
      "inputs": [
        {
          "internalType": "uint256",
          "name": "_houseEdgeBps",
          "type": "uint256"
        }
      ],
      "name": "setHouseEdgeBps",
      "outputs": [],
      "stateMutability": "nonpayable",
      "type": "function"
    },
    {
      "inputs": [
        {
          "internalType": "uint256",
          "name": "_minWager",
          "type": "uint256"
        },
        {
          "internalType": "uint256",
          "name": "_maxWager",
          "type": "uint256"
        }
      ],
      "name": "setWagerLimits",
      "outputs": [],
      "stateMutability": "nonpayable",
      "type": "function"
    },
    {
      "inputs": [
        {
          "internalType": "bool",
          "name": "choice",
          "type": "bool"
        }
      ],
      "name": "spin",
      "outputs": [
        {
          "internalType": "bool",
          "name": "won",
          "type": "bool"
        },
        {
          "internalType": "uint256",
          "name": "payout",
          "type": "uint256"
        }
      ],
      "stateMutability": "payable",
      "type": "function"
    },
    {
      "inputs": [],
      "name": "totalGames",
      "outputs": [
        {
          "internalType": "uint256",
          "name": "",
          "type": "uint256"
        }
      ],
      "stateMutability": "view",
      "type": "function"
    },
    {
      "inputs": [],
      "name": "totalPaidOut",
      "outputs": [
        {
          "internalType": "uint256",
          "name": "",
          "type": "uint256"
        }
      ],
      "stateMutability": "view",
      "type": "function"
    },
    {
      "inputs": [],
      "name": "totalWagered",
      "outputs": [
        {
          "internalType": "uint256",
          "name": "",
          "type": "uint256"
        }
      ],
      "stateMutability": "view",
      "type": "function"
    },
    {
      "inputs": [
        {
          "internalType": "address",
          "name": "newOwner",
          "type": "address"
        }
      ],
      "name": "transferOwnership",
      "outputs": [],
      "stateMutability": "nonpayable",
      "type": "function"
    },
    {
      "inputs": [
        {
          "internalType": "address payable",
          "name": "to",
          "type": "address"
        },
        {
          "internalType": "uint256",
          "name": "amount",
          "type": "uint256"
        }
      ],
      "name": "withdraw",
      "outputs": [],
      "stateMutability": "nonpayable",
      "type": "function"
    },
    {
      "stateMutability": "payable",
      "type": "receive"
    }
  ],
  "bytecode": "0x60806040526101f4600255678ac7230489e80000600355662386f26fc1000060045534801561002d57600080fd5b506001600081905580546001600160a01b03191633179055610ca7806100546000396000f3fe6080604052600436106100e05760003560e01c8063a52ef3fa1161007f578063be1e1ae611610059578063be1e1ae614610261578063cd9d9c1014610281578063f2fde38b146102a1578063f3fef3a3146102c157600080fd5b8063a52ef3fa1461022b578063b60d428814610241578063bb9c3f2b1461024b57600080fd5b8063496621d7116100bb578063496621d7146101765780636499572f146101b35780638a14f12c146101dd5780638da5cb5b146101f357600080fd5b8062998421146101215780631357e1dc1461014a5780632c4e591b1461016057600080fd5b3661011c5760405134815233907f5af8184bef8e4b45eb9f6ed7734d04da38ced226495548f46e0c8ff8d7d9a5249060200160405180910390a2005b600080fd5b34801561012d57600080fd5b5061013760025481565b6040519081526020015b60405180910390f35b34801561015657600080fd5b5061013760075481565b34801561016c57600080fd5b5061013760055481565b34801561018257600080fd5b5061018b6102e1565b604080519586526020860194909452928401919091526060830152608082015260a001610141565b6101c66101c1366004610af2565b610326565b604080519215158352602083019190915201610141565b3480156101e957600080fd5b5061013760065481565b3480156101ff57600080fd5b50600154610213906001600160a01b031681565b6040516001600160a01b039091168152602001610141565b34801561023757600080fd5b5061013760035481565b6102496105f6565b005b34801561025757600080fd5b5061013760045481565b34801561026d57600080fd5b5061024961027c366004610b1b565b61062d565b34801561028d57600080fd5b5061024961029c366004610b34565b6106da565b3480156102ad57600080fd5b506102496102bc366004610b6e565b6107ea565b3480156102cd57600080fd5b506102496102dc366004610b8b565b6108b8565b60008060008060004760055460065460075460075460065411610305576000610315565b6007546006546103159190610bcd565b945094509450945094509091929394565b6000806002600054036103805760405162461bcd60e51b815260206004820152601f60248201527f5265656e7472616e637947756172643a207265656e7472616e742063616c6c0060448201526064015b60405180910390fd5b60026000556004543410156103c75760405162461bcd60e51b815260206004820152600d60248201526c776167657220746f6f206c6f7760981b6044820152606401610377565b60035434111561040a5760405162461bcd60e51b815260206004820152600e60248201526d0eec2cecae440e8dede40d0d2ced60931b6044820152606401610377565b6000612710600254614e2061041f9190610bcd565b6104299034610be6565b6104339190610c13565b9050804710156104855760405162461bcd60e51b815260206004820152601860248201527f696e73756666696369656e7420686f7573652066756e647300000000000000006044820152606401610377565b600061048f610a62565b90508015158515151493508315610554578192506000336001600160a01b03168460405160006040518083038185875af1925050503d80600081146104f0576040519150601f19603f3d011682016040523d82523d6000602084013e6104f5565b606091505b50509050806105365760405162461bcd60e51b815260206004820152600d60248201526c1c185e5bdd5d0819985a5b1959609a1b6044820152606401610377565b83600760008282546105489190610c27565b90915550610559915050565b600092505b60016005600082825461056c9190610c27565b9250508190555034600660008282546105859190610c27565b90915550506005546040805134815287151560208201528315158183015286151560608201526080810186905260a08101929092525133917f8bf3aeffd33ed88934730b6d0e5beaa9b69784db77b311bdd8d93e7d1fe2df30919081900360c00190a2505060016000559092909150565b60405134815233907f5af8184bef8e4b45eb9f6ed7734d04da38ced226495548f46e0c8ff8d7d9a5249060200160405180910390a2565b6001546001600160a01b031633146106575760405162461bcd60e51b815260040161037790610c3a565b6103e881111561069f5760405162461bcd60e51b81526020600482015260136024820152720d0deeae6ca40cac8ceca40e8dede40d0d2ced606b1b6044820152606401610377565b60028190556040518181527f5082c314f0d5d410c0175820fe02f58a21198fde20ddb6e65c96825cadab67a89060200160405180910390a150565b6001546001600160a01b031633146107045760405162461bcd60e51b815260040161037790610c3a565b600082116107545760405162461bcd60e51b815260206004820152601a60248201527f6d696e207761676572206d75737420626520706f7369746976650000000000006044820152606401610377565b8181116107a35760405162461bcd60e51b815260206004820152601c60248201527f6d6178206d7573742062652067726561746572207468616e206d696e000000006044820152606401610377565b6004829055600381905560408051838152602081018390527fdbf2172dddfefe228ea47036cca172b7963f961d5b10127008459fed4fb42d8e910160405180910390a15050565b6001546001600160a01b031633146108145760405162461bcd60e51b815260040161037790610c3a565b6001600160a01b03811661085c5760405162461bcd60e51b815260206004820152600f60248201526e696e76616c6964206164647265737360881b6044820152606401610377565b6001546040516001600160a01b038084169216907f8be0079c531659141344cd1fd0a4f28419497f9722a3daafe3b4186f6b6457e090600090a3600180546001600160a01b0319166001600160a01b0392909216919091179055565b6001546001600160a01b031633146108e25760405162461bcd60e51b815260040161037790610c3a565b6002600054036109345760405162461bcd60e51b815260206004820152601f60248201527f5265656e7472616e637947756172643a207265656e7472616e742063616c6c006044820152606401610377565b6002600055478111156109805760405162461bcd60e51b8152602060048201526014602482015273696e73756666696369656e742062616c616e636560601b6044820152606401610377565b6000826001600160a01b03168260405160006040518083038185875af1925050503d80600081146109cd576040519150601f19603f3d011682016040523d82523d6000602084013e6109d2565b606091505b5050905080610a155760405162461bcd60e51b815260206004820152600f60248201526e1d1c985b9cd9995c8819985a5b1959608a1b6044820152606401610377565b826001600160a01b03167f884edad9ce6fa2440d8a54cc123490eb96d2768479d49ff9c7366125a942436483604051610a5091815260200190565b60405180910390a25050600160005550565b600080424360014311610a755743610a80565b610a80600143610bcd565b6005546040805160208101959095528401929092524060608084019190915233901b6bffffffffffffffffffffffff1916608083015260948201524760b482015260d40160408051601f1981840301815291905280516020909101209050610ae9600282610c5d565b60011491505090565b600060208284031215610b0457600080fd5b81358015158114610b1457600080fd5b9392505050565b600060208284031215610b2d57600080fd5b5035919050565b60008060408385031215610b4757600080fd5b50508035926020909101359150565b6001600160a01b0381168114610b6b57600080fd5b50565b600060208284031215610b8057600080fd5b8135610b1481610b56565b60008060408385031215610b9e57600080fd5b8235610ba981610b56565b946020939093013593505050565b634e487b7160e01b600052601160045260246000fd5b81810381811115610be057610be0610bb7565b92915050565b8082028115828204841417610be057610be0610bb7565b634e487b7160e01b600052601260045260246000fd5b600082610c2257610c22610bfd565b500490565b80820180821115610be057610be0610bb7565b6020808252600990820152683737ba1037bbb732b960b91b604082015260600190565b600082610c6c57610c6c610bfd565b50069056fea264697066735822122092e9addfb61a1b6de9a80c57c3a4a6a52f082ba672878cc2fcb0d5abed769c2964736f6c63430008170033",
  "linkReferences": {},
  "deployedLinkReferences": {}
}