{"contracts/CoinflipHouse.sol":{"CoinflipHouse":{"abi":[{"inputs":[],"stateMutability":"nonpayable","type":"constructor"},{"anonymous":false,"inputs":[{"indexed":true,"internalType":"address","name":"from","type":"address"},{"indexed":false,"internalType":"uint256","name":"amount","type":"uint256"}],"name":"Funded","type":"event"},{"anonymous":false,"inputs":[{"indexed":true,"internalType":"address","name":"player","type":"address"},{"indexed":false,"internalType":"uint256","name":"wager","type":"uint256"},{"indexed":false,"internalType":"bool","name":"playerChoice","type":"bool"},{"indexed":false,"internalType":"bool","name":"result","type":"bool"},{"indexed":false,"internalType":"bool","name":"won","type":"bool"},{"indexed":false,"internalType":"uint256","name":"payout","type":"uint256"},{"indexed":false,"internalType":"uint256","name":"gameId","type":"uint256"}],"name":"GamePlayed","type":"event"},{"anonymous":false,"inputs":[{"indexed":false,"internalType":"uint256","name":"newHouseEdge","type":"uint256"}],"name":"HouseEdgeUpdated","type":"event"},{"anonymous":false,"inputs":[{"indexed":false,"internalType":"uint256","name":"newMinWager","type":"uint256"},{"indexed":false,"internalType":"uint256","name":"newMaxWager","type":"uint256"}],"name":"WagerLimitsUpdated","type":"event"},{"anonymous":false,"inputs":[{"indexed":true,"internalType":"address","name":"to","type":"address"},{"indexed":false,"internalType":"uint256","name":"amount","type":"uint256"}],"name":"Withdraw","type":"event"},{"inputs":[{"internalType":"bool","name":"choice","type":"bool"}],"name":"flip","outputs":[{"internalType":"bool","name":"won","type":"bool"},{"internalType":"uint256","name":"payout","type":"uint256"}],"stateMutability":"payable","type":"function"},{"inputs":[],"name":"fund","outputs":[],"stateMutability":"payable","type":"function"},{"inputs":[],"name":"getHouseStats","outputs":[{"internalType":"uint256","name":"balance","type":"uint256"},{"internalType":"uint256","name":"games","type":"uint256"},{"internalType":"uint256","name":"wagered","type":"uint256"},{"internalType":"uint256","name":"paidOut","type":"uint256"},{"internalType":"uint256","name":"houseProfit","type":"uint256"}],"stateMutability":"view","type":"function"},{"inputs":[],"name":"houseEdge","outputs":[{"internalType":"uint256","name":"","type":"uint256"}],"stateMutability":"view","type":"function"},{"inputs":[],"name":"maxWager","outputs":[{"internalType":"uint256","name":"","type":"uint256"}],"stateMutability":"view","type":"function"},{"inputs":[],"name":"minWager","outputs":[{"internalType":"uint256","name":"","type":"uint256"}],"stateMutability":"view","type":"function"},{"inputs":[],"name":"owner","outputs":[{"internalType":"address","name":"","type":"address"}],"stateMutability":"view","type":"function"},{"inputs":[{"internalType":"uint256","name":"_houseEdge","type":"uint256"}],"name":"setHouseEdge","outputs":[],"stateMutability":"nonpayable","type":"function"},{"inputs":[{"internalType":"uint256","name":"_minWager","type":"uint256"},{"internalType":"uint256","name":"_maxWager","type":"uint256"}],"name":"setWagerLimits","outputs":[],"stateMutability":"nonpayable","type":"function"},{"inputs":[],"name":"totalGames","outputs":[{"internalType":"uint256","name":"","type":"uint256"}],"stateMutability":"view","type":"function"},{"inputs":[],"name":"totalPaidOut","outputs":[{"internalType":"uint256","name":"","type":"uint256"}],"stateMutability":"view","type":"function"},{"inputs":[],"name":"totalWagered","outputs":[{"internalType":"uint256","name":"","type":"uint256"}],"stateMutability":"view","type":"function"},{"inputs":[{"internalType":"address","name":"newOwner","type":"address"}],"name":"transferOwnership","outputs":[],"stateMutability":"nonpayable","type":"function"},{"inputs":[{"internalType":"address payable","name":"to","type":"address"},{"internalType":"uint256","name":"amount","type":"uint256"}],"name":"withdraw","outputs":[],"stateMutability":"nonpayable","type":"function"},{"stateMutability":"payable","type":"receive"}],"evm":{"bytecode":{"linkReferences":{},"object":"608060405260fa600155678ac7230489e80000600255662386f26fc1000060035534801561002c57600080fd5b50600080546001600160a01b03191633179055610bbf8061004e6000396000f3fe6080604052600436106100e15760003560e01c8063a52ef3fa1161007f578063cd9d9c1011610059578063cd9d9c101461026c578063d667dcd71461028c578063f2fde38b146102a2578063f3fef3a3146102c257600080fd5b8063a52ef3fa14610238578063b60d42881461024e578063bb9c3f2b1461025657600080fd5b8063496621d7116100bb578063496621d71461018b5780636cd0f102146101c85780638a14f12c146101ea5780638da5cb5b1461020057600080fd5b80631357e1dc146101225780631d263f671461014b5780632c4e591b1461017557600080fd5b3661011d5760405134815233907f5af8184bef8e4b45eb9f6ed7734d04da38ced226495548f46e0c8ff8d7d9a5249060200160405180910390a2005b600080fd5b34801561012e57600080fd5b5061013860065481565b6040519081526020015b60405180910390f35b61015e6101593660046109f1565b6102e2565b604080519215158352602083019190915201610142565b34801561018157600080fd5b5061013860045481565b34801561019757600080fd5b506101a061055a565b604080519586526020860194909452928401919091526060830152608082015260a001610142565b3480156101d457600080fd5b506101e86101e3366004610a1a565b61059f565b005b3480156101f657600080fd5b5061013860055481565b34801561020c57600080fd5b50600054610220906001600160a01b031681565b6040516001600160a01b039091168152602001610142565b34801561024457600080fd5b5061013860025481565b6101e861064c565b34801561026257600080fd5b5061013860035481565b34801561027857600080fd5b506101e8610287366004610a33565b610683565b34801561029857600080fd5b5061013860015481565b3480156102ae57600080fd5b506101e86102bd366004610a6d565b610793565b3480156102ce57600080fd5b506101e86102dd366004610a8a565b610827565b60008060035434101561032c5760405162461bcd60e51b815260206004820152600d60248201526c776167657220746f6f206c6f7760981b60448201526064015b60405180910390fd5b60025434111561036f5760405162461bcd60e51b815260206004820152600e60248201526d0eec2cecae440e8dede40d0d2ced60931b6044820152606401610323565b60006127106001546127106103849190610acc565b61038f346002610ae5565b6103999190610ae5565b6103a39190610b12565b9050804710156103f55760405162461bcd60e51b815260206004820152601860248201527f696e73756666696369656e7420686f7573652066756e647300000000000000006044820152606401610323565b60006103ff610975565b905080151585151514935083156104c4578192506000336001600160a01b03168460405160006040518083038185875af1925050503d8060008114610460576040519150601f19603f3d011682016040523d82523d6000602084013e610465565b606091505b50509050806104a65760405162461bcd60e51b815260206004820152600d60248201526c1c185e5bdd5d0819985a5b1959609a1b6044820152606401610323565b83600660008282546104b89190610b26565b909155506104c9915050565b600092505b600480549060006104d983610b39565b919050555034600560008282546104f09190610b26565b90915550506004546040805134815287151560208201528315158183015286151560608201526080810186905260a08101929092525133917f8bf3aeffd33ed88934730b6d0e5beaa9b69784db77b311bdd8d93e7d1fe2df30919081900360c00190a25050915091565b6000806000806000476004546005546006546006546005541161057e57600061058e565b60065460055461058e9190610acc565b945094509450945094509091929394565b6000546001600160a01b031633146105c95760405162461bcd60e51b815260040161032390610b52565b6103e88111156106115760405162461bcd60e51b81526020600482015260136024820152720d0deeae6ca40cac8ceca40e8dede40d0d2ced606b1b6044820152606401610323565b60018190556040518181527f5082c314f0d5d410c0175820fe02f58a21198fde20ddb6e65c96825cadab67a89060200160405180910390a150565b60405134815233907f5af8184bef8e4b45eb9f6ed7734d04da38ced226495548f46e0c8ff8d7d9a5249060200160405180910390a2565b6000546001600160a01b031633146106ad5760405162461bcd60e51b815260040161032390610b52565b600082116106fd5760405162461bcd60e51b815260206004820152601a60248201527f6d696e207761676572206d75737420626520706f7369746976650000000000006044820152606401610323565b81811161074c5760405162461bcd60e51b815260206004820152601c60248201527f6d6178206d7573742062652067726561746572207468616e206d696e000000006044820152606401610323565b6003829055600281905560408051838152602081018390527fdbf2172dddfefe228ea47036cca172b7963f961d5b10127008459fed4fb42d8e910160405180910390a15050565b6000546001600160a01b031633146107bd5760405162461bcd60e51b815260040161032390610b52565b6001600160a01b0381166108055760405162461bcd60e51b815260206004820152600f60248201526e696e76616c6964206164647265737360881b6044820152606401610323565b600080546001600160a01b0319166001600160a01b0392909216919091179055565b6000546001600160a01b031633146108515760405162461bcd60e51b815260040161032390610b52565b804710156108985760405162461bcd60e51b8152602060048201526014602482015273696e73756666696369656e742062616c616e636560601b6044820152606401610323565b6000826001600160a01b03168260405160006040518083038185875af1925050503d80600081146108e5576040519150601f19603f3d011682016040523d82523d6000602084013e6108ea565b606091505b505090508061092d5760405162461bcd60e51b815260206004820152600f60248201526e1d1c985b9cd9995c8819985a5b1959608a1b6044820152606401610323565b826001600160a01b03167f884edad9ce6fa2440d8a54cc123490eb96d2768479d49ff9c7366125a94243648360405161096891815260200190565b60405180910390a2505050565b600080424433600454476040516020016109c3959493929190948552602085019390935260609190911b6bffffffffffffffffffffffff191660408401526054830152607482015260940190565b60408051601f19818403018152919052805160209091012090506109e8600282610b75565b60011491505090565b600060208284031215610a0357600080fd5b81358015158114610a1357600080fd5b9392505050565b600060208284031215610a2c57600080fd5b5035919050565b60008060408385031215610a4657600080fd5b50508035926020909101359150565b6001600160a01b0381168114610a6a57600080fd5b50565b600060208284031215610a7f57600080fd5b8135610a1381610a55565b60008060408385031215610a9d57600080fd5b8235610aa881610a55565b946020939093013593505050565b634e487b7160e01b600052601160045260246000fd5b81810381811115610adf57610adf610ab6565b92915050565b8082028115828204841417610adf57610adf610ab6565b634e487b7160e01b600052601260045260246000fd5b600082610b2157610b21610afc565b500490565b80820180821115610adf57610adf610ab6565b600060018201610b4b57610b4b610ab6565b5060010190565b6020808252600990820152683737ba1037bbb732b960b91b604082015260600190565b600082610b8457610b84610afc565b50069056fea26469706673582212201b19aad903b10555b5c57b7d29e09e5ad7720df67d217c9f465c03c00c74a81764736f6c63430008170033","opcodes":"PUSH1 0x80 PUSH1 0x40 MSTORE PUSH1 0xFA PUSH1 0x1 SSTORE PUSH8 0x8AC7230489E80000 PUSH1 0x2 SSTORE PUSH7 0x2386F26FC10000 PUSH1 0x3 SSTORE CALLVALUE DUP1 ISZERO PUSH2 0x2C JUMPI PUSH1 0x0 DUP1 REVERT JUMPDEST POP PUSH1 0x0 DUP1 SLOAD PUSH1 0x1 PUSH1 0x1 PUSH1 0xA0 SHL SUB NOT AND CALLER OR SWAP1 SSTORE PUSH2 0xBBF DUP1 PUSH2 0x4E PUSH1 0x0 CODECOPY PUSH1 0x0 RETURN INVALID PUSH1 0x80 PUSH1 0x40 MSTORE PUSH1 0x4 CALLDATASIZE LT PUSH2 0xE1 JUMPI PUSH1 0x0 CALLDATALOAD PUSH1 0xE0 SHR DUP1 PUSH4 0xA52EF3FA GT PUSH2 0x7F JUMPI DUP1 PUSH4 0xCD9D9C10 GT PUSH2 0x59 JUMPI DUP1 PUSH4 0xCD9D9C10 EQ PUSH2 0x26C JUMPI DUP1 PUSH4 0xD667DCD7 EQ PUSH2 0x28C JUMPI DUP1 PUSH4 0xF2FDE38B EQ PUSH2 0x2A2 JUMPI DUP1 PUSH4 0xF3FEF3A3 EQ PUSH2 0x2C2 JUMPI PUSH1 0x0 DUP1 REVERT JUMPDEST DUP1 PUSH4 0xA52EF3FA EQ PUSH2 0x238 JUMPI DUP1 PUSH4 0xB60D4288 EQ PUSH2 0x24E JUMPI DUP1 PUSH4 0xBB9C3F2B EQ PUSH2 0x256 JUMPI PUSH1 0x0 DUP1 REVERT JUMPDEST DUP1 PUSH4 0x496621D7 GT PUSH2 0xBB JUMPI DUP1 PUSH4 0x496621D7 EQ PUSH2 0x18B JUMPI DUP1 PUSH4 0x6CD0F102 EQ PUSH2 0x1C8 JUMPI DUP1 PUSH4 0x8A14F12C EQ PUSH2 0x1EA JUMPI DUP1 PUSH4 0x8DA5CB5B EQ PUSH2 0x200 JUMPI PUSH1 0x0 DUP1 REVERT JUMPDEST DUP1 PUSH4 0x1357E1DC EQ PUSH2 0x122 JUMPI DUP1 PUSH4 0x1D263F67 EQ PUSH2 0x14B JUMPI DUP1 PUSH4 0x2C4E591B EQ PUSH2 0x175 JUMPI PUSH1 0x0 DUP1 REVERT JUMPDEST CALLDATASIZE PUSH2 0x11D JUMPI PUSH1 0x40 MLOAD CALLVALUE DUP2 MSTORE CALLER SWAP1 PUSH32 0x5AF8184BEF8E4B45EB9F6ED7734D04DA38CED226495548F46E0C8FF8D7D9A524 SWAP1 PUSH1 0x20 ADD PUSH1 0x40 MLOAD DUP1 SWAP2 SUB SWAP1 LOG2 STOP JUMPDEST PUSH1 0x0 DUP1 REVERT JUMPDEST CALLVALUE DUP1 ISZERO PUSH2 0x12E JUMPI PUSH1 0x0 DUP1 REVERT JUMPDEST POP PUSH2 0x138 PUSH1 0x6 SLOAD DUP2 JUMP JUMPDEST PUSH1 0x40 MLOAD SWAP1 DUP2 MSTORE PUSH1 0x20 ADD JUMPDEST PUSH1 0x40 MLOAD DUP1 SWAP2 SUB SWAP1 RETURN JUMPDEST PUSH2 0x15E PUSH2 0x159 CALLDATASIZE PUSH1 0x4 PUSH2 0x9F1 JUMP JUMPDEST PUSH2 0x2E2 JUMP JUMPDEST PUSH1 0x40 DUP1 MLOAD SWAP3 ISZERO ISZERO DUP4 MSTORE PUSH1 0x20 DUP4 ADD SWAP2 SWAP1 SWAP2 MSTORE ADD PUSH2 0x142 JUMP JUMPDEST CALLVALUE DUP1 ISZERO PUSH2 0x181 JUMPI PUSH1 0x0 DUP1 REVERT JUMPDEST POP PUSH2 0x138 PUSH1 0x4 SLOAD DUP2 JUMP JUMPDEST CALLVALUE DUP1 ISZERO PUSH2 0x197 JUMPI PUSH1 0x0 DUP1 REVERT JUMPDEST POP PUSH2 0x1A0 PUSH2 0x55A JUMP JUMPDEST PUSH1 0x40 DUP1 MLOAD SWAP6 DUP7 MSTORE PUSH1 0x20 DUP7 ADD SWAP5 SWAP1 SWAP5 MSTORE SWAP3 DUP5 ADD SWAP2 SWAP1 SWAP2 MSTORE PUSH1 0x60 DUP4 ADD MSTORE PUSH1 0x80 DUP3 ADD MSTORE PUSH1 0xA0 ADD PUSH2 0x142 JUMP JUMPDEST CALLVALUE DUP1 ISZERO PUSH2 0x1D4 JUMPI PUSH1 0x0 DUP1 REVERT JUMPDEST POP PUSH2 0x1E8 PUSH2 0x1E3 CALLDATASIZE PUSH1 0x4 PUSH2 0xA1A JUMP JUMPDEST PUSH2 0x59F JUMP JUMPDEST STOP JUMPDEST CALLVALUE DUP1 ISZERO PUSH2 0x1F6 JUMPI PUSH1 0x0 DUP1 REVERT JUMPDEST POP PUSH2 0x138 PUSH1 0x5 SLOAD DUP2 JUMP JUMPDEST CALLVALUE DUP1 ISZERO PUSH2 0x20C JUMPI PUSH1 0x0 DUP1 REVERT JUMPDEST POP PUSH1 0x0 SLOAD PUSH2 0x220 SWAP1 PUSH1 0x1 PUSH1 0x1 PUSH1 0xA0 SHL SUB AND DUP2 JUMP JUMPDEST PUSH1 0x40 MLOAD PUSH1 0x1 PUSH1 0x1 PUSH1 0xA0 SHL SUB SWAP1 SWAP2 AND DUP2 MSTORE PUSH1 0x20 ADD PUSH2 0x142 JUMP JUMPDEST CALLVALUE DUP1 ISZERO PUSH2 0x244 JUMPI PUSH1 0x0 DUP1 REVERT JUMPDEST POP PUSH2 0x138 PUSH1 0x2 SLOAD DUP2 JUMP JUMPDEST PUSH2 0x1E8 PUSH2 0x64C JUMP JUMPDEST CALLVALUE DUP1 ISZERO PUSH2 0x262 JUMPI PUSH1 0x0 DUP1 REVERT JUMPDEST POP PUSH2 0x138 PUSH1 0x3 SLOAD DUP2 JUMP JUMPDEST CALLVALUE DUP1 ISZERO PUSH2 0x278 JUMPI PUSH1 0x0 DUP1 REVERT JUMPDEST POP PUSH2 0x1E8 PUSH2 0x287 CALLDATASIZE PUSH1 0x4 PUSH2 0xA33 JUMP JUMPDEST PUSH2 0x683 JUMP JUMPDEST CALLVALUE DUP1 ISZERO PUSH2 0x298 JUMPI PUSH1 0x0 DUP1 REVERT JUMPDEST POP PUSH2 0x138 PUSH1 0x1 SLOAD DUP2 JUMP JUMPDEST CALLVALUE DUP1 ISZERO PUSH2 0x2AE JUMPI PUSH1 0x0 DUP1 REVERT JUMPDEST POP PUSH2 0x1E8 PUSH2 0x2BD CALLDATASIZE PUSH1 0x4 PUSH2 0xA6D JUMP JUMPDEST PUSH2 0x793 JUMP JUMPDEST CALLVALUE DUP1 ISZERO PUSH2 0x2CE JUMPI PUSH1 0x0 DUP1 REVERT JUMPDEST POP PUSH2 0x1E8 PUSH2 0x2DD CALLDATASIZE PUSH1 0x4 PUSH2 0xA8A JUMP JUMPDEST PUSH2 0x827 JUMP JUMPDEST PUSH1 0x0 DUP1 PUSH1 0x3 SLOAD CALLVALUE LT ISZERO PUSH2 0x32C JUMPI PUSH1 0x40 MLOAD PUSH3 0x461BCD PUSH1 0xE5 SHL DUP2 MSTORE PUSH1 0x20 PUSH1 0x4 DUP3 ADD MSTORE PUSH1 0xD PUSH1 0x24 DUP3 ADD MSTORE PUSH13 0x776167657220746F6F206C6F77 PUSH1 0x98 SHL PUSH1 0x44 DUP3 ADD MSTORE PUSH1 0x64 ADD JUMPDEST PUSH1 0x40 MLOAD DUP1 SWAP2 SUB SWAP1 REVERT JUMPDEST PUSH1 0x2 SLOAD CALLVALUE GT ISZERO PUSH2 0x36F JUMPI PUSH1 0x40 MLOAD PUSH3 0x461BCD PUSH1 0xE5 SHL DUP2 MSTORE PUSH1 0x20 PUSH1 0x4 DUP3 ADD MSTORE PUSH1 0xE PUSH1 0x24 DUP3 ADD MSTORE PUSH14 0xEEC2CECAE440E8DEDE40D0D2CED PUSH1 0x93 SHL PUSH1 0x44 DUP3 ADD MSTORE PUSH1 0x64 ADD PUSH2 0x323 JUMP JUMPDEST PUSH1 0x0 PUSH2 0x2710 PUSH1 0x1 SLOAD PUSH2 0x2710 PUSH2 0x384 SWAP2 SWAP1 PUSH2 0xACC JUMP JUMPDEST PUSH2 0x38F CALLVALUE PUSH1 0x2 PUSH2 0xAE5 JUMP JUMPDEST PUSH2 0x399 SWAP2 SWAP1 PUSH2 0xAE5 JUMP JUMPDEST PUSH2 0x3A3 SWAP2 SWAP1 PUSH2 0xB12 JUMP JUMPDEST SWAP1 POP DUP1 SELFBALANCE LT ISZERO PUSH2 0x3F5 JUMPI PUSH1 0x40 MLOAD PUSH3 0x461BCD PUSH1 0xE5 SHL DUP2 MSTORE PUSH1 0x20 PUSH1 0x4 DUP3 ADD MSTORE PUSH1 0x18 PUSH1 0x24 DUP3 ADD MSTORE PUSH32 0x696E73756666696369656E7420686F7573652066756E64730000000000000000 PUSH1 0x44 DUP3 ADD MSTORE PUSH1 0x64 ADD PUSH2 0x323 JUMP JUMPDEST PUSH1 0x0 PUSH2 0x3FF PUSH2 0x975 JUMP JUMPDEST SWAP1 POP DUP1 ISZERO ISZERO DUP6 ISZERO ISZERO EQ SWAP4 POP DUP4 ISZERO PUSH2 0x4C4 JUMPI DUP2 SWAP3 POP PUSH1 0x0 CALLER PUSH1 0x1 PUSH1 0x1 PUSH1 0xA0 SHL SUB AND DUP5 PUSH1 0x40 MLOAD PUSH1 0x0 PUSH1 0x40 MLOAD DUP1 DUP4 SUB DUP2 DUP6 DUP8 GAS CALL SWAP3 POP POP POP RETURNDATASIZE DUP1 PUSH1 0x0 DUP2 EQ PUSH2 0x460 JUMPI PUSH1 0x40 MLOAD SWAP2 POP PUSH1 0x1F NOT PUSH1 0x3F RETURNDATASIZE ADD AND DUP3 ADD PUSH1 0x40 MSTORE RETURNDATASIZE DUP3 MSTORE RETURNDATASIZE PUSH1 0x0 PUSH1 0x20 DUP5 ADD RETURNDATACOPY PUSH2 0x465 JUMP JUMPDEST PUSH1 0x60 SWAP2 POP JUMPDEST POP POP SWAP1 POP DUP1 PUSH2 0x4A6 JUMPI PUSH1 0x40 MLOAD PUSH3 0x461BCD PUSH1 0xE5 SHL DUP2 MSTORE PUSH1 0x20 PUSH1 0x4 DUP3 ADD MSTORE PUSH1 0xD PUSH1 0x24 DUP3 ADD MSTORE PUSH13 0x1C185E5BDD5D0819985A5B1959 PUSH1 0x9A SHL PUSH1 0x44 DUP3 ADD MSTORE PUSH1 0x64 ADD PUSH2 0x323 JUMP JUMPDEST DUP4 PUSH1 0x6 PUSH1 0x0 DUP3 DUP3 SLOAD PUSH2 0x4B8 SWAP2 SWAP1 PUSH2 0xB26 JUMP JUMPDEST SWAP1 SWAP2 SSTORE POP PUSH2 0x4C9 SWAP2 POP POP JUMP JUMPDEST PUSH1 0x0 SWAP3 POP JUMPDEST PUSH1 0x4 DUP1 SLOAD SWAP1 PUSH1 0x0 PUSH2 0x4D9 DUP4 PUSH2 0xB39 JUMP JUMPDEST SWAP2 SWAP1 POP SSTORE POP CALLVALUE PUSH1 0x5 PUSH1 0x0 DUP3 DUP3 SLOAD PUSH2 0x4F0 SWAP2 SWAP1 PUSH2 0xB26 JUMP JUMPDEST SWAP1 SWAP2 SSTORE POP POP PUSH1 0x4 SLOAD PUSH1 0x40 DUP1 MLOAD CALLVALUE DUP2 MSTORE DUP8 ISZERO ISZERO PUSH1 0x20 DUP3 ADD MSTORE DUP4 ISZERO ISZERO DUP2 DUP4 ADD MSTORE DUP7 ISZERO ISZERO PUSH1 0x60 DUP3 ADD MSTORE PUSH1 0x80 DUP2 ADD DUP7 SWAP1 MSTORE PUSH1 0xA0 DUP2 ADD SWAP3 SWAP1 SWAP3 MSTORE MLOAD CALLER SWAP2 PUSH32 0x8BF3AEFFD33ED88934730B6D0E5BEAA9B69784DB77B311BDD8D93E7D1FE2DF30 SWAP2 SWAP1 DUP2 SWAP1 SUB PUSH1 0xC0 ADD SWAP1 LOG2 POP POP SWAP2 POP SWAP2 JUMP JUMPDEST PUSH1 0x0 DUP1 PUSH1 0x0 DUP1 PUSH1 0x0 SELFBALANCE PUSH1 0x4 SLOAD PUSH1 0x5 SLOAD PUSH1 0x6 SLOAD PUSH1 0x6 SLOAD PUSH1 0x5 SLOAD GT PUSH2 0x57E JUMPI PUSH1 0x0 PUSH2 0x58E JUMP JUMPDEST PUSH1 0x6 SLOAD PUSH1 0x5 SLOAD PUSH2 0x58E SWAP2 SWAP1 PUSH2 0xACC JUMP JUMPDEST SWAP5 POP SWAP5 POP SWAP5 POP SWAP5 POP SWAP5 POP SWAP1 SWAP2 SWAP3 SWAP4 SWAP5 JUMP JUMPDEST PUSH1 0x0 SLOAD PUSH1 0x1 PUSH1 0x1 PUSH1 0xA0 SHL SUB AND CALLER EQ PUSH2 0x5C9 JUMPI PUSH1 0x40 MLOAD PUSH3 0x461BCD PUSH1 0xE5 SHL DUP2 MSTORE PUSH1 0x4 ADD PUSH2 0x323 SWAP1 PUSH2 0xB52 JUMP JUMPDEST PUSH2 0x3E8 DUP2 GT ISZERO PUSH2 0x611 JUMPI PUSH1 0x40 MLOAD PUSH3 0x461BCD PUSH1 0xE5 SHL DUP2 MSTORE PUSH1 0x20 PUSH1 0x4 DUP3 ADD MSTORE PUSH1 0x13 PUSH1 0x24 DUP3 ADD MSTORE PUSH19 0xD0DEEAE6CA40CAC8CECA40E8DEDE40D0D2CED PUSH1 0x6B SHL PUSH1 0x44 DUP3 ADD MSTORE PUSH1 0x64 ADD PUSH2 0x323 JUMP JUMPDEST PUSH1 0x1 DUP2 SWAP1 SSTORE PUSH1 0x40 MLOAD DUP2 DUP2 MSTORE PUSH32 0x5082C314F0D5D410C0175820FE02F58A21198FDE20DDB6E65C96825CADAB67A8 SWAP1 PUSH1 0x20 ADD PUSH1 0x40 MLOAD DUP1 SWAP2 SUB SWAP1 LOG1 POP JUMP JUMPDEST PUSH1 0x40 MLOAD CALLVALUE DUP2 MSTORE CALLER SWAP1 PUSH32 0x5AF8184BEF8E4B45EB9F6ED7734D04DA38CED226495548F46E0C8FF8D7D9A524 SWAP1 PUSH1 0x20 ADD PUSH1 0x40 MLOAD DUP1 SWAP2 SUB SWAP1 LOG2 JUMP JUMPDEST PUSH1 0x0 SLOAD PUSH1 0x1 PUSH1 0x1 PUSH1 0xA0 SHL SUB AND CALLER EQ PUSH2 0x6AD JUMPI PUSH1 0x40 MLOAD PUSH3 0x461BCD PUSH1 0xE5 SHL DUP2 MSTORE PUSH1 0x4 ADD PUSH2 0x323 SWAP1 PUSH2 0xB52 JUMP JUMPDEST PUSH1 0x0 DUP3 GT PUSH2 0x6FD JUMPI PUSH1 0x40 MLOAD PUSH3 0x461BCD PUSH1 0xE5 SHL DUP2 MSTORE PUSH1 0x20 PUSH1 0x4 DUP3 ADD MSTORE PUSH1 0x1A PUSH1 0x24 DUP3 ADD MSTORE PUSH32 0x6D696E207761676572206D75737420626520706F736974697665000000000000 PUSH1 0x44 DUP3 ADD MSTORE PUSH1 0x64 ADD PUSH2 0x323 JUMP JUMPDEST DUP2 DUP2 GT PUSH2 0x74C JUMPI PUSH1 0x40 MLOAD PUSH3 0x461BCD PUSH1 0xE5 SHL DUP2 MSTORE PUSH1 0x20 PUSH1 0x4 DUP3 ADD MSTORE PUSH1 0x1C PUSH1 0x24 DUP3 ADD MSTORE PUSH32 0x6D6178206D7573742062652067726561746572207468616E206D696E00000000 PUSH1 0x44 DUP3 ADD MSTORE PUSH1 0x64 ADD PUSH2 0x323 JUMP JUMPDEST PUSH1 0x3 DUP3 SWAP1 SSTORE PUSH1 0x2 DUP2 SWAP1 SSTORE PUSH1 0x40 DUP1 MLOAD DUP4 DUP2 MSTORE PUSH1 0x20 DUP2 ADD DUP4 SWAP1 MSTORE PUSH32 0xDBF2172DDDFEFE228EA47036CCA172B7963F961D5B10127008459FED4FB42D8E SWAP2 ADD PUSH1 0x40 MLOAD DUP1 SWAP2 SUB SWAP1 LOG1 POP POP JUMP JUMPDEST PUSH1 0x0 SLOAD PUSH1 0x1 PUSH1 0x1 PUSH1 0xA0 SHL SUB AND CALLER EQ PUSH2 0x7BD JUMPI PUSH1 0x40 MLOAD PUSH3 0x461BCD PUSH1 0xE5 SHL DUP2 MSTORE PUSH1 0x4 ADD PUSH2 0x323 SWAP1 PUSH2 0xB52 JUMP JUMPDEST PUSH1 0x1 PUSH1 0x1 PUSH1 0xA0 SHL SUB DUP2 AND PUSH2 0x805 JUMPI PUSH1 0x40 MLOAD PUSH3 0x461BCD PUSH1 0xE5 SHL DUP2 MSTORE PUSH1 0x20 PUSH1 0x4 DUP3 ADD MSTORE PUSH1 0xF PUSH1 0x24 DUP3 ADD MSTORE PUSH15 0x696E76616C69642061646472657373 PUSH1 0x88 SHL PUSH1 0x44 DUP3 ADD MSTORE PUSH1 0x64 ADD PUSH2 0x323 JUMP JUMPDEST PUSH1 0x0 DUP1 SLOAD PUSH1 0x1 PUSH1 0x1 PUSH1 0xA0 SHL SUB NOT AND PUSH1 0x1 PUSH1 0x1 PUSH1 0xA0 SHL SUB SWAP3 SWAP1 SWAP3 AND SWAP2 SWAP1 SWAP2 OR SWAP1 SSTORE JUMP JUMPDEST PUSH1 0x0 SLOAD PUSH1 0x1 PUSH1 0x1 PUSH1 0xA0 SHL SUB AND CALLER EQ PUSH2 0x851 JUMPI PUSH1 0x40 MLOAD PUSH3 0x461BCD PUSH1 0xE5 SHL DUP2 MSTORE PUSH1 0x4 ADD PUSH2 0x323 SWAP1 PUSH2 0xB52 JUMP JUMPDEST DUP1 SELFBALANCE LT ISZERO PUSH2 0x898 JUMPI PUSH1 0x40 MLOAD PUSH3 0x461BCD PUSH1 0xE5 SHL DUP2 MSTORE PUSH1 0x20 PUSH1 0x4 DUP3 ADD MSTORE PUSH1 0x14 PUSH1 0x24 DUP3 ADD MSTORE PUSH20 0x696E73756666696369656E742062616C616E6365 PUSH1 0x60 SHL PUSH1 0x44 DUP3 ADD MSTORE PUSH1 0x64 ADD PUSH2 0x323 JUMP JUMPDEST PUSH1 0x0 DUP3 PUSH1 0x1 PUSH1 0x1 PUSH1 0xA0 SHL SUB AND DUP3 PUSH1 0x40 MLOAD PUSH1 0x0 PUSH1 0x40 MLOAD DUP1 DUP4 SUB DUP2 DUP6 DUP8 GAS CALL SWAP3 POP POP POP RETURNDATASIZE DUP1 PUSH1 0x0 DUP2 EQ PUSH2 0x8E5 JUMPI PUSH1 0x40 MLOAD SWAP2 POP PUSH1 0x1F NOT PUSH1 0x3F RETURNDATASIZE ADD AND DUP3 ADD PUSH1 0x40 MSTORE RETURNDATASIZE DUP3 MSTORE RETURNDATASIZE PUSH1 0x0 PUSH1 0x20 DUP5 ADD RETURNDATACOPY PUSH2 0x8EA JUMP JUMPDEST PUSH1 0x60 SWAP2 POP JUMPDEST POP POP SWAP1 POP DUP1 PUSH2 0x92D JUMPI PUSH1 0x40 MLOAD PUSH3 0x461BCD PUSH1 0xE5 SHL DUP2 MSTORE PUSH1 0x20 PUSH1 0x4 DUP3 ADD MSTORE PUSH1 0xF PUSH1 0x24 DUP3 ADD MSTORE PUSH15 0x1D1C985B9CD9995C8819985A5B1959 PUSH1 0x8A SHL PUSH1 0x44 DUP3 ADD MSTORE PUSH1 0x64 ADD PUSH2 0x323 JUMP JUMPDEST DUP3 PUSH1 0x1 PUSH1 0x1 PUSH1 0xA0 SHL SUB AND PUSH32 0x884EDAD9CE6FA2440D8A54CC123490EB96D2768479D49FF9C7366125A9424364 DUP4 PUSH1 0x40 MLOAD PUSH2 0x968 SWAP2 DUP2 MSTORE PUSH1 0x20 ADD SWAP1 JUMP JUMPDEST PUSH1 0x40 MLOAD DUP1 SWAP2 SUB SWAP1 LOG2 POP POP POP JUMP JUMPDEST PUSH1 0x0 DUP1 TIMESTAMP PREVRANDAO CALLER PUSH1 0x4 SLOAD SELFBALANCE PUSH1 0x40 MLOAD PUSH1 0x20 ADD PUSH2 0x9C3 SWAP6 SWAP5 SWAP4 SWAP3 SWAP2 SWAP1 SWAP5 DUP6 MSTORE PUSH1 0x20 DUP6 ADD SWAP4 SWAP1 SWAP4 MSTORE PUSH1 0x60 SWAP2 SWAP1 SWAP2 SHL PUSH12 0xFFFFFFFFFFFFFFFFFFFFFFFF NOT AND PUSH1 0x40 DUP5 ADD MSTORE PUSH1 0x54 DUP4 ADD MSTORE PUSH1 0x74 DUP3 ADD MSTORE PUSH1 0x94 ADD SWAP1 JUMP JUMPDEST PUSH1 0x40 DUP1 MLOAD PUSH1 0x1F NOT DUP2 DUP5 SUB ADD DUP2 MSTORE SWAP2 SWAP1 MSTORE DUP1 MLOAD PUSH1 0x20 SWAP1 SWAP2 ADD KECCAK256 SWAP1 POP PUSH2 0x9E8 PUSH1 0x2 DUP3 PUSH2 0xB75 JUMP JUMPDEST PUSH1 0x1 EQ SWAP2 POP POP SWAP1 JUMP JUMPDEST PUSH1 0x0 PUSH1 0x20 DUP3 DUP5 SUB SLT ISZERO PUSH2 0xA03 JUMPI PUSH1 0x0 DUP1 REVERT JUMPDEST DUP2 CALLDATALOAD DUP1 ISZERO ISZERO DUP2 EQ PUSH2 0xA13 JUMPI PUSH1 0x0 DUP1 REVERT JUMPDEST SWAP4 SWAP3 POP POP POP JUMP JUMPDEST PUSH1 0x0 PUSH1 0x20 DUP3 DUP5 SUB SLT ISZERO PUSH2 0xA2C JUMPI PUSH1 0x0 DUP1 REVERT JUMPDEST POP CALLDATALOAD SWAP2 SWAP1 POP JUMP JUMPDEST PUSH1 0x0 DUP1 PUSH1 0x40 DUP4 DUP6 SUB SLT ISZERO PUSH2 0xA46 JUMPI PUSH1 0x0 DUP1 REVERT JUMPDEST POP POP DUP1 CALLDATALOAD SWAP3 PUSH1 0x20 SWAP1 SWAP2 ADD CALLDATALOAD SWAP2 POP JUMP JUMPDEST PUSH1 0x1 PUSH1 0x1 PUSH1 0xA0 SHL SUB DUP2 AND DUP2 EQ PUSH2 0xA6A JUMPI PUSH1 0x0 DUP1 REVERT JUMPDEST POP JUMP JUMPDEST PUSH1 0x0 PUSH1 0x20 DUP3 DUP5 SUB SLT ISZERO PUSH2 0xA7F JUMPI PUSH1 0x0 DUP1 REVERT JUMPDEST DUP2 CALLDATALOAD PUSH2 0xA13 DUP2 PUSH2 0xA55 JUMP JUMPDEST PUSH1 0x0 DUP1 PUSH1 0x40 DUP4 DUP6 SUB SLT ISZERO PUSH2 0xA9D JUMPI PUSH1 0x0 DUP1 REVERT JUMPDEST DUP3 CALLDATALOAD PUSH2 0xAA8 DUP2 PUSH2 0xA55 JUMP JUMPDEST SWAP5 PUSH1 0x20 SWAP4 SWAP1 SWAP4 ADD CALLDATALOAD SWAP4 POP POP POP JUMP JUMPDEST PUSH4 0x4E487B71 PUSH1 0xE0 SHL PUSH1 0x0 MSTORE PUSH1 0x11 PUSH1 0x4 MSTORE PUSH1 0x24 PUSH1 0x0 REVERT JUMPDEST DUP2 DUP2 SUB DUP2 DUP2 GT ISZERO PUSH2 0xADF JUMPI PUSH2 0xADF PUSH2 0xAB6 JUMP JUMPDEST SWAP3 SWAP2 POP POP JUMP JUMPDEST DUP1 DUP3 MUL DUP2 ISZERO DUP3 DUP3 DIV DUP5 EQ OR PUSH2 0xADF JUMPI PUSH2 0xADF PUSH2 0xAB6 JUMP JUMPDEST PUSH4 0x4E487B71 PUSH1 0xE0 SHL PUSH1 0x0 MSTORE PUSH1 0x12 PUSH1 0x4 MSTORE PUSH1 0x24 PUSH1 0x0 REVERT JUMPDEST PUSH1 0x0 DUP3 PUSH2 0xB21 JUMPI PUSH2 0xB21 PUSH2 0xAFC JUMP JUMPDEST POP DIV SWAP1 JUMP JUMPDEST DUP1 DUP3 ADD DUP1 DUP3 GT ISZERO PUSH2 0xADF JUMPI PUSH2 0xADF PUSH2 0xAB6 JUMP JUMPDEST PUSH1 0x0 PUSH1 0x1 DUP3 ADD PUSH2 0xB4B JUMPI PUSH2 0xB4B PUSH2 0xAB6 JUMP JUMPDEST POP PUSH1 0x1 ADD SWAP1 JUMP JUMPDEST PUSH1 0x20 DUP1 DUP3 MSTORE PUSH1 0x9 SWAP1 DUP3 ADD MSTORE PUSH9 0x3737BA1037BBB732B9 PUSH1 0xB9 SHL PUSH1 0x40 DUP3 ADD MSTORE PUSH1 0x60 ADD SWAP1 JUMP JUMPDEST PUSH1 0x0 DUP3 PUSH2 0xB84 JUMPI PUSH2 0xB84 PUSH2 0xAFC JUMP JUMPDEST POP MOD SWAP1 JUMP INVALID LOG2 PUSH5 0x6970667358 0x22 SLT KECCAK256 SHL NOT 0xAA 0xD9 SUB 0xB1 SDIV SSTORE 0xB5 0xC5 PUSH28 0x7D29E09E5AD7720DF67D217C9F465C03C00C74A81764736F6C634300 ADDMOD OR STOP CALLER "},"methodIdentifiers":{"flip(bool)":"1d263f67","fund()":"b60d4288","getHouseStats()":"496621d7","houseEdge()":"d667dcd7","maxWager()":"a52ef3fa","minWager()":"bb9c3f2b","owner()":"8da5cb5b","setHouseEdge(uint256)":"6cd0f102","setWagerLimits(uint256,uint256)":"cd9d9c10","totalGames()":"2c4e591b","totalPaidOut()":"1357e1dc","totalWagered()":"8a14f12c","transferOwnership(address)":"f2fde38b","withdraw(address,uint256)":"f3fef3a3"}}}}}