{
  "_format": "hh-sol-artifact-1",
  "contractName": "CoinflipHouse",
  "sourceName": "contracts/CoinflipHouse.sol",
  "abi": [
    {
      "inputs": [],
      "stateMutability": "nonpayable",
      "type": "constructor"
    },
    {
      "anonymous": false,
      "inputs": [
        {
          "indexed": true,
          "internalType": "address",
          "name": "from",
          "type": "address"
        },
        {
          "indexed": false,
          "internalType": "uint256",
          "name": "amount",
          "type": "uint256"
        }
      ],
      "name": "Funded",
      "type": "event"
    },
    {
      "anonymous": false,
      "inputs": [
        {
          "indexed": true,
          "internalType": "address",
          "name": "player",
          "type": "address"
        },
        {
          "indexed": false,
          "internalType": "uint256",
          "name": "wager",
          "type": "uint256"
        },
        {
          "indexed": false,
          "internalType": "bool",
          "name": "playerChoice",
          "type": "bool"
        },
        {
          "indexed": false,
          "internalType": "bool",
          "name": "result",
          "type": "bool"
        },
        {
          "indexed": false,
          "internalType": "bool",
          "name": "won",
          "type": "bool"
        },
        {
          "indexed": false,
          "internalType": "uint256",
          "name": "payout",
          "type": "uint256"
        },
        {
          "indexed": false,
          "internalType": "uint256",
          "name": "gameId",
          "type": "uint256"
        }
      ],
      "name": "GamePlayed",
      "type": "event"
    },
    {
      "anonymous": false,
      "inputs": [
        {
          "indexed": false,
          "internalType": "uint256",
          "name": "newHouseEdge",
          "type": "uint256"
        }
      ],
      "name": "HouseEdgeUpdated",
      "type": "event"
    },
    {
      "anonymous": false,
      "inputs": [
        {
          "indexed": false,
          "internalType": "uint256",
          "name": "newMinWager",
          "type": "uint256"
        },
        {
          "indexed": false,
          "internalType": "uint256",
          "name": "newMaxWager",
          "type": "uint256"
        }
      ],
      "name": "WagerLimitsUpdated",
      "type": "event"
    },
    {
      "anonymous": false,
      "inputs": [
        {
          "indexed": true,
          "internalType": "address",
          "name": "to",
          "type": "address"
        },
        {
          "indexed": false,
          "internalType": "uint256",
          "name": "amount",
          "type": "uint256"
        }
      ],
      "name": "Withdraw",
      "type": "event"
    },
    {
      "inputs": [
        {
          "internalType": "bool",
          "name": "choice",
          "type": "bool"
        }
      ],
      "name": "flip",
      "outputs": [
        {
          "internalType": "bool",
          "name": "won",
          "type": "bool"
        },
        {
          "internalType": "uint256",
          "name": "payout",
          "type": "uint256"
        }
      ],
      "stateMutability": "payable",
      "type": "function"
    },
    {
      "inputs": [],
      "name": "fund",
      "outputs": [],
      "stateMutability": "payable",
      "type": "function"
    },
    {
      "inputs": [],
      "name": "getHouseStats",
      "outputs": [
        {
          "internalType": "uint256",
          "name": "balance",
          "type": "uint256"
        },
        {
          "internalType": "uint256",
          "name": "games",
          "type": "uint256"
        },
        {
          "internalType": "uint256",
          "name": "wagered",
          "type": "uint256"
        },
        {
          "internalType": "uint256",
          "name": "paidOut",
          "type": "uint256"
        },
        {
          "internalType": "uint256",
          "name": "houseProfit",
          "type": "uint256"
        }
      ],
      "stateMutability": "view",
      "type": "function"
    },
    {
      "inputs": [],
      "name": "houseEdge",
      "outputs": [
        {
          "internalType": "uint256",
          "name": "",
          "type": "uint256"
        }
      ],
      "stateMutability": "view",
      "type": "function"
    },
    {
      "inputs": [],
      "name": "maxWager",
      "outputs": [
        {
          "internalType": "uint256",
          "name": "",
          "type": "uint256"
        }
      ],
      "stateMutability": "view",
      "type": "function"
    },
    {
      "inputs": [],
      "name": "minWager",
      "outputs": [
        {
          "internalType": "uint256",
          "name": "",
          "type": "uint256"
        }
      ],
      "stateMutability": "view",
      "type": "function"
    },
    {
      "inputs": [],
      "name": "owner",
      "outputs": [
        {
          "internalType": "address",
          "name": "",
          "type": "address"
        }
      ],
      "stateMutability": "view",
      "type": "function"
    },
    {
      "inputs": [
        {
          "internalType": "uint256",
          "name": "_houseEdge",
          "type": "uint256"
        }
      ],
      "name": "setHouseEdge",
      "outputs": [],
      "stateMutability": "nonpayable",
      "type": "function"
    },
    {
      "inputs": [
        {
          "internalType": "uint256",
          "name": "_minWager",
          "type": "uint256"
        },
        {
          "internalType": "uint256",
          "name": "_maxWager",
          "type": "uint256"
        }
      ],
      "name": "setWagerLimits",
      "outputs": [],
      "stateMutability": "nonpayable",
      "type": "function"
    },
    {
      "inputs": [],
      "name": "totalGames",
      "outputs": [
        {
          "internalType": "uint256",
          "name": "",
          "type": "uint256"
        }
      ],
      "stateMutability": "view",
      "type": "function"
    },
    {
      "inputs": [],
      "name": "totalPaidOut",
      "outputs": [
        {
          "internalType": "uint256",
          "name": "",
          "type": "uint256"
        }
      ],
      "stateMutability": "view",
      "type": "function"
    },
    {
      "inputs": [],
      "name": "totalWagered",
      "outputs": [
        {
          "internalType": "uint256",
          "name": "",
          "type": "uint256"
        }
      ],
      "stateMutability": "view",
      "type": "function"
    },
    {
      "inputs": [
        {
          "internalType": "address",
          "name": "newOwner",
          "type": "address"
        }
      ],
      "name": "transferOwnership",
      "outputs": [],
      "stateMutability": "nonpayable",
      "type": "function"
    },
    {
      "inputs": [
        {
          "internalType": "address payable",
          "name": "to",
          "type": "address"
        },
        {
          "internalType": "uint256",
          "name": "amount",
          "type": "uint256"
        }
      ],
      "name": "withdraw",
      "outputs": [],
      "stateMutability": "nonpayable",
      "type": "function"
    },
    {
      "stateMutability": "payable",
      "type": "receive"
    }
  ],
  "bytecode": "0x608060405260fa600155678ac7230489e80000600255662386f26fc1000060035534801561002c57600080fd5b50600080546001600160a01b03191633179055610bbf8061004e6000396000f3fe6080604052600436106100e15760003560e01c8063a52ef3fa1161007f578063cd9d9c1011610059578063cd9d9c101461026c578063d667dcd71461028c578063f2fde38b146102a2578063f3fef3a3146102c257600080fd5b8063a52ef3fa14610238578063b60d42881461024e578063bb9c3f2b1461025657600080fd5b8063496621d7116100bb578063496621d71461018b5780636cd0f102146101c85780638a14f12c146101ea5780638da5cb5b1461020057600080fd5b80631357e1dc146101225780631d263f671461014b5780632c4e591b1461017557600080fd5b3661011d5760405134815233907f5af8184bef8e4b45eb9f6ed7734d04da38ced226495548f46e0c8ff8d7d9a5249060200160405180910390a2005b600080fd5b34801561012e57600080fd5b5061013860065481565b6040519081526020015b60405180910390f35b61015e6101593660046109f1565b6102e2565b604080519215158352602083019190915201610142565b34801561018157600080fd5b5061013860045481565b34801561019757600080fd5b506101a061055a565b604080519586526020860194909452928401919091526060830152608082015260a001610142565b3480156101d457600080fd5b506101e86101e3366004610a1a565b61059f565b005b3480156101f657600080fd5b5061013860055481565b34801561020c57600080fd5b50600054610220906001600160a01b031681565b6040516001600160a01b039091168152602001610142565b34801561024457600080fd5b5061013860025481565b6101e861064c565b34801561026257600080fd5b5061013860035481565b34801561027857600080fd5b506101e8610287366004610a33565b610683565b34801561029857600080fd5b5061013860015481565b3480156102ae57600080fd5b506101e86102bd366004610a6d565b610793565b3480156102ce57600080fd5b506101e86102dd366004610a8a565b610827565b60008060035434101561032c5760405162461bcd60e51b815260206004820152600d60248201526c776167657220746f6f206c6f7760981b60448201526064015b60405180910390fd5b60025434111561036f5760405162461bcd60e51b815260206004820152600e60248201526d0eec2cecae440e8dede40d0d2ced60931b6044820152606401610323565b60006127106001546127106103849190610acc565b61038f346002610ae5565b6103999190610ae5565b6103a39190610b12565b9050804710156103f55760405162461bcd60e51b815260206004820152601860248201527f696e73756666696369656e7420686f7573652066756e647300000000000000006044820152606401610323565b60006103ff610975565b905080151585151514935083156104c4578192506000336001600160a01b03168460405160006040518083038185875af1925050503d8060008114610460576040519150601f19603f3d011682016040523d82523d6000602084013e610465565b606091505b50509050806104a65760405162461bcd60e51b815260206004820152600d60248201526c1c185e5bdd5d0819985a5b1959609a1b6044820152606401610323565b83600660008282546104b89190610b26565b909155506104c9915050565b600092505b600480549060006104d983610b39565b919050555034600560008282546104f09190610b26565b90915550506004546040805134815287151560208201528315158183015286151560608201526080810186905260a08101929092525133917f8bf3aeffd33ed88934730b6d0e5beaa9b69784db77b311bdd8d93e7d1fe2df30919081900360c00190a25050915091565b6000806000806000476004546005546006546006546005541161057e57600061058e565b60065460055461058e9190610acc565b945094509450945094509091929394565b6000546001600160a01b031633146105c95760405162461bcd60e51b815260040161032390610b52565b6103e88111156106115760405162461bcd60e51b81526020600482015260136024820152720d0deeae6ca40cac8ceca40e8dede40d0d2ced606b1b6044820152606401610323565b60018190556040518181527f5082c314f0d5d410c0175820fe02f58a21198fde20ddb6e65c96825cadab67a89060200160405180910390a150565b60405134815233907f5af8184bef8e4b45eb9f6ed7734d04da38ced226495548f46e0c8ff8d7d9a5249060200160405180910390a2565b6000546001600160a01b031633146106ad5760405162461bcd60e51b815260040161032390610b52565b600082116106fd5760405162461bcd60e51b815260206004820152601a60248201527f6d696e207761676572206d75737420626520706f7369746976650000000000006044820152606401610323565b81811161074c5760405162461bcd60e51b815260206004820152601c60248201527f6d6178206d7573742062652067726561746572207468616e206d696e000000006044820152606401610323565b6003829055600281905560408051838152602081018390527fdbf2172dddfefe228ea47036cca172b7963f961d5b10127008459fed4fb42d8e910160405180910390a15050565b6000546001600160a01b031633146107bd5760405162461bcd60e51b815260040161032390610b52565b6001600160a01b0381166108055760405162461bcd60e51b815260206004820152600f60248201526e696e76616c6964206164647265737360881b6044820152606401610323565b600080546001600160a01b0319166001600160a01b0392909216919091179055565b6000546001600160a01b031633146108515760405162461bcd60e51b815260040161032390610b52565b804710156108985760405162461bcd60e51b8152602060048201526014602482015273696e73756666696369656e742062616c616e636560601b6044820152606401610323565b6000826001600160a01b03168260405160006040518083038185875af1925050503d80600081146108e5576040519150601f19603f3d011682016040523d82523d6000602084013e6108ea565b606091505b505090508061092d5760405162461bcd60e51b815260206004820152600f60248201526e1d1c985b9cd9995c8819985a5b1959608a1b6044820152606401610323565b826001600160a01b03167f884edad9ce6fa2440d8a54cc123490eb96d2768479d49ff9c7366125a94243648360405161096891815260200190565b60405180910390a2505050565b600080424433600454476040516020016109c3959493929190948552602085019390935260609190911b6bffffffffffffffffffffffff191660408401526054830152607482015260940190565b60408051601f19818403018152919052805160209091012090506109e8600282610b75565b60011491505090565b600060208284031215610a0357600080fd5b81358015158114610a1357600080fd5b9392505050565b600060208284031215610a2c57600080fd5b5035919050565b60008060408385031215610a4657600080fd5b50508035926020909101359150565b6001600160a01b0381168114610a6a57600080fd5b50565b600060208284031215610a7f57600080fd5b8135610a1381610a55565b60008060408385031215610a9d57600080fd5b8235610aa881610a55565b946020939093013593505050565b634e487b7160e01b600052601160045260246000fd5b81810381811115610adf57610adf610ab6565b92915050565b8082028115828204841417610adf57610adf610ab6565b634e487b7160e01b600052601260045260246000fd5b600082610b2157610b21610afc565b500490565b80820180821115610adf57610adf610ab6565b600060018201610b4b57610b4b610ab6565b5060010190565b6020808252600990820152683737ba1037bbb732b960b91b604082015260600190565b600082610b8457610b84610afc565b50069056fea26469706673582212201b19aad903b10555b5c57b7d29e09e5ad7720df67d217c9f465c03c00c74a81764736f6c63430008170033",
  "linkReferences": {},
  "deployedLinkReferences": {}
}