{
  "_format": "hh-sol-artifact-1",
  "contractName": "CoinflipP2P",
  "sourceName": "contracts/CoinflipP2P.sol",
  "abi": [
    {
      "anonymous": false,
      "inputs": [
        {
          "indexed": true,
          "internalType": "uint256",
          "name": "id",
          "type": "uint256"
        },
        {
          "indexed": true,
          "internalType": "address",
          "name": "player",
          "type": "address"
        },
        {
          "indexed": false,
          "internalType": "bytes32",
          "name": "commit",
          "type": "bytes32"
        }
      ],
      "name": "Committed",
      "type": "event"
    },
    {
      "anonymous": false,
      "inputs": [
        {
          "indexed": true,
          "internalType": "uint256",
          "name": "id",
          "type": "uint256"
        },
        {
          "indexed": true,
          "internalType": "address",
          "name": "p2",
          "type": "address"
        }
      ],
      "name": "Joined",
      "type": "event"
    },
    {
      "anonymous": false,
      "inputs": [
        {
          "indexed": true,
          "internalType": "uint256",
          "name": "id",
          "type": "uint256"
        },
        {
          "indexed": true,
          "internalType": "address",
          "name": "p1",
          "type": "address"
        },
        {
          "indexed": false,
          "internalType": "uint256",
          "name": "wager",
          "type": "uint256"
        }
      ],
      "name": "MatchCreated",
      "type": "event"
    },
    {
      "anonymous": false,
      "inputs": [
        {
          "indexed": true,
          "internalType": "uint256",
          "name": "id",
          "type": "uint256"
        },
        {
          "indexed": true,
          "internalType": "address",
          "name": "player",
          "type": "address"
        },
        {
          "indexed": false,
          "internalType": "bytes32",
          "name": "seed",
          "type": "bytes32"
        }
      ],
      "name": "Revealed",
      "type": "event"
    },
    {
      "anonymous": false,
      "inputs": [
        {
          "indexed": true,
          "internalType": "uint256",
          "name": "id",
          "type": "uint256"
        },
        {
          "indexed": true,
          "internalType": "address",
          "name": "winner",
          "type": "address"
        },
        {
          "indexed": false,
          "internalType": "uint256",
          "name": "amount",
          "type": "uint256"
        }
      ],
      "name": "Settled",
      "type": "event"
    },
    {
      "inputs": [],
      "name": "COMMIT_WINDOW",
      "outputs": [
        {
          "internalType": "uint64",
          "name": "",
          "type": "uint64"
        }
      ],
      "stateMutability": "view",
      "type": "function"
    },
    {
      "inputs": [],
      "name": "REVEAL_WINDOW",
      "outputs": [
        {
          "internalType": "uint64",
          "name": "",
          "type": "uint64"
        }
      ],
      "stateMutability": "view",
      "type": "function"
    },
    {
      "inputs": [
        {
          "internalType": "uint256",
          "name": "id",
          "type": "uint256"
        },
        {
          "internalType": "bytes32",
          "name": "commitHash",
          "type": "bytes32"
        }
      ],
      "name": "commit",
      "outputs": [],
      "stateMutability": "nonpayable",
      "type": "function"
    },
    {
      "inputs": [],
      "name": "createMatch",
      "outputs": [
        {
          "internalType": "uint256",
          "name": "id",
          "type": "uint256"
        }
      ],
      "stateMutability": "payable",
      "type": "function"
    },
    {
      "inputs": [
        {
          "internalType": "uint256",
          "name": "id",
          "type": "uint256"
        }
      ],
      "name": "joinMatch",
      "outputs": [],
      "stateMutability": "payable",
      "type": "function"
    },
    {
      "inputs": [
        {
          "internalType": "uint256",
          "name": "",
          "type": "uint256"
        }
      ],
      "name": "matches",
      "outputs": [
        {
          "internalType": "address",
          "name": "p1",
          "type": "address"
        },
        {
          "internalType": "address",
          "name": "p2",
          "type": "address"
        },
        {
          "internalType": "uint256",
          "name": "wager",
          "type": "uint256"
        },
        {
          "internalType": "bytes32",
          "name": "commit1",
          "type": "bytes32"
        },
        {
          "internalType": "bytes32",
          "name": "commit2",
          "type": "bytes32"
        },
        {
          "internalType": "bytes32",
          "name": "seed1",
          "type": "bytes32"
        },
        {
          "internalType": "bytes32",
          "name": "seed2",
          "type": "bytes32"
        },
        {
          "internalType": "uint64",
          "name": "commitDeadline",
          "type": "uint64"
        },
        {
          "internalType": "uint64",
          "name": "revealDeadline",
          "type": "uint64"
        },
        {
          "internalType": "bool",
          "name": "settled",
          "type": "bool"
        }
      ],
      "stateMutability": "view",
      "type": "function"
    },
    {
      "inputs": [],
      "name": "nextId",
      "outputs": [
        {
          "internalType": "uint256",
          "name": "",
          "type": "uint256"
        }
      ],
      "stateMutability": "view",
      "type": "function"
    },
    {
      "inputs": [
        {
          "internalType": "uint256",
          "name": "id",
          "type": "uint256"
        },
        {
          "internalType": "bytes32",
          "name": "seed",
          "type": "bytes32"
        }
      ],
      "name": "reveal",
      "outputs": [],
      "stateMutability": "nonpayable",
      "type": "function"
    },
    {
      "inputs": [
        {
          "internalType": "uint256",
          "name": "id",
          "type": "uint256"
        }
      ],
      "name": "settle",
      "outputs": [],
      "stateMutability": "nonpayable",
      "type": "function"
    }
  ],
  "bytecode": "0x6080604052600160005534801561001557600080fd5b50610cf7806100256000396000f3fe6080604052600436106100865760003560e01c80638df82800116100595780638df82800146101f5578063a0cc641a14610215578063e97f6a681461008b578063f2f038771461021d578063feb8c4381461023d57600080fd5b806317e931cf1461008b5780634036778f146100be5780634768d4ef146100e057806361b8ce8c146101d1575b600080fd5b34801561009757600080fd5b506100a161038481565b6040516001600160401b0390911681526020015b60405180910390f35b3480156100ca57600080fd5b506100de6100d9366004610c13565b610250565b005b3480156100ec57600080fd5b5061016e6100fb366004610c35565b6001602081905260009182526040909120805491810154600282015460038301546004840154600585015460068601546007909601546001600160a01b0397881697909516959394929391929091906001600160401b0380821691600160401b810490911690600160801b900460ff168a565b604080516001600160a01b039b8c1681529a90991660208b0152978901969096526060880194909452608087019290925260a086015260c08501526001600160401b0390811660e0850152166101008301521515610120820152610140016100b5565b3480156101dd57600080fd5b506101e760005481565b6040519081526020016100b5565b34801561020157600080fd5b506100de610210366004610c35565b6104c5565b6101e7610806565b34801561022957600080fd5b506100de610238366004610c13565b6108c2565b6100de61024b366004610c35565b610ac7565b60008281526001602052604090206007810154600160401b90046001600160401b03161580159061029557506007810154600160401b90046001600160401b03164211155b6102d45760405162461bcd60e51b815260206004820152600b60248201526a2932bb32b0b61037bb32b960a91b60448201526064015b60405180910390fd5b80546001600160a01b03163303610392576005810154156103255760405162461bcd60e51b815260206004820152600b60248201526a140c481c995d99585b195960aa1b60448201526064016102cb565b600381015460408051602081018590520160405160208183030381529060405280519060200120146103865760405162461bcd60e51b815260206004820152600a602482015269109859081c995d99585b60b21b60448201526064016102cb565b60058101829055610488565b60018101546001600160a01b03163303610453576006810154156103e65760405162461bcd60e51b815260206004820152600b60248201526a140c881c995d99585b195960aa1b60448201526064016102cb565b600481015460408051602081018590520160405160208183030381529060405280519060200120146104475760405162461bcd60e51b815260206004820152600a602482015269109859081c995d99585b60b21b60448201526064016102cb565b60068101829055610488565b60405162461bcd60e51b815260206004820152600a6024820152692737ba10383630bcb2b960b11b60448201526064016102cb565b604051828152339084907fa3aeba35ff272153458023d09ee88c7eac77d87b62503d27c738e8068edb8204906020015b60405180910390a3505050565b60008181526001602052604090206007810154600160801b900460ff16156105195760405162461bcd60e51b815260206004820152600760248201526614d95d1d1b195960ca1b60448201526064016102cb565b6005810154600090158015906105325750600682015415155b156105a15760058201546006830154604080516020808201889052818301949094526060808201939093528151808203909301835260800190528051910120600181161561058d5760018301546001600160a01b0316610599565b82546001600160a01b03165b9150506106e0565b6007820154600160401b90046001600160401b0316158015906105d757506007820154600160401b90046001600160401b031642115b15610626576005820154156105f7575080546001600160a01b03166106e0565b600682015415610615575060018101546001600160a01b03166106e0565b5080546001600160a01b03166106e0565b60078201546001600160401b03161580159061064e575060078201546001600160401b031642115b156106ac5760038201541580159061066857506004820154155b1561067e575080546001600160a01b03166106e0565b60048201541580159061069357506003820154155b15610615575060018101546001600160a01b03166106e0565b60405162461bcd60e51b81526020600482015260096024820152684e6f7420726561647960b81b60448201526064016102cb565b60078201805460ff60801b1916600160801b1790556002808301546000916107089190610c64565b4710156107155747610724565b60028084015461072491610c64565b90506000826001600160a01b03168260405160006040518083038185875af1925050503d8060008114610773576040519150601f19603f3d011682016040523d82523d6000602084013e610778565b606091505b50509050806107bb5760405162461bcd60e51b815260206004820152600f60248201526e151c985b9cd9995c8819985a5b1959608a1b60448201526064016102cb565b826001600160a01b0316857f2c35d68fdf40b18e913bb877373b4a4fc67810e2546dc5c9f9208eb8494057cb846040516107f791815260200190565b60405180910390a35050505050565b60008034116108485760405162461bcd60e51b815260206004820152600e60248201526d15d859d95c881c995c5d5a5c995960921b60448201526064016102cb565b60008054908061085783610c81565b9091555060008181526001602090815260409182902080546001600160a01b03191633908117825534600283018190559351938452939450929184917fd54e72c7c537da5aba0c3d338b5fcbe4ee8d6e4dce121c81c8c57aa13e5c6d64910160405180910390a35090565b6000828152600160208190526040909120908101546001600160a01b031661091f5760405162461bcd60e51b815260206004820152601060248201526f2bb0b4ba34b733903337b9103537b4b760811b60448201526064016102cb565b60078101546001600160401b031642111561096a5760405162461bcd60e51b815260206004820152600b60248201526a21b7b6b6b4ba1037bb32b960a91b60448201526064016102cb565b80546001600160a01b031633036109c8576003810154156109bc5760405162461bcd60e51b815260206004820152600c60248201526b140c4818dbdb5b5a5d1d195960a21b60448201526064016102cb565b60038101829055610a25565b60018101546001600160a01b0316330361045357600481015415610a1d5760405162461bcd60e51b815260206004820152600c60248201526b140c8818dbdb5b5a5d1d195960a21b60448201526064016102cb565b600481018290555b600381015415801590610a3b5750600481015415155b8015610a5957506007810154600160401b90046001600160401b0316155b15610a9357610a6a61038442610c9a565b8160070160086101000a8154816001600160401b0302191690836001600160401b031602179055505b604051828152339084907f26a454697a4923cb3646779d831b5e4696bd3fab14b67dd6dfe23d72354f57dd906020016104b8565b600081815260016020526040902080546001600160a01b0316610b175760405162461bcd60e51b815260206004820152600860248201526709cde40dac2e8c6d60c31b60448201526064016102cb565b60018101546001600160a01b031615610b5b5760405162461bcd60e51b81526004016102cb90602080825260049082015263119d5b1b60e21b604082015260600190565b80600201543414610b9f5760405162461bcd60e51b815260206004820152600e60248201526d0aec2cecae440dad2e6dac2e8c6d60931b60448201526064016102cb565b6001810180546001600160a01b03191633179055610bbf61038442610c9a565b60078201805467ffffffffffffffff19166001600160401b0392909216919091179055604051339083907fc0081eeafa0d002abcd7d58d84b6e688d1526b9c3d915a282212ba08c49a17a790600090a35050565b60008060408385031215610c2657600080fd5b50508035926020909101359150565b600060208284031215610c4757600080fd5b5035919050565b634e487b7160e01b600052601160045260246000fd5b8082028115828204841417610c7b57610c7b610c4e565b92915050565b600060018201610c9357610c93610c4e565b5060010190565b6001600160401b03818116838216019080821115610cba57610cba610c4e565b509291505056fea2646970667358221220a98646024430682b319e24b7eaf1807610f24eb5739e9c9b8b9fda860a31a04a64736f6c63430008170033",
  "linkReferences": {},
  "deployedLinkReferences": {}
}